:020000040800F2
:100000000000022081870008D1870008D1870008FE
:10001000D1870008D1870008D187000800000000C0
:10002000000000000000000000000000D187000870
:10003000D187000800000000D1870008D1870008A0
:10004000D1870008D1870008D1870008D187000830
:10005000D1870008D1870008D1870008D187000820
:10006000D1870008D1870008D1870008D187000810
:10007000D1870008D1870008D1870008D187000800
:10008000D1870008D1870008D18700080000000050
:10009000000000000000000000000000D187000800
:1000A000D1870008D1870008D1870008D1870008D0
:1000B000D1870008D1870008D1870008D1870008C0
:1000C000D1870008D1870008D1870008D1870008B0
:1000D000D1870008D1870008D18700080000000000
:1000E000D1870008D1870008D187000800000000F0
:1000F000000000000000000000000000D1870008A0
:1001000000000000D1870008D1870008D1870008CF
:1001100000000000000000000000000000000000DF
:10012000D1870008D1870008D1870008D18700084F
:10013000D18700080000000000000000000000005F
:10014000000000000000000000000000D18700084F
:10015000D1870008D1870008D1870008D18700081F
:10016000D1870008D18700080000000000000000CF
:10017000000000000000000000000000000000007F
:10018000000000000000000000000000000000006F
:08019000D1870008D1870008A7
:10020000A3F5803A704700BF174B002B08BF134B74
:100210009D46FFF7F5FF00218B460F461348144A11
:10022000121A0BF01AF90E4B002B00D098470D4B09
:10023000002B00D098470020002104000D000D483D
:10024000002802D00C48AFF300800BF0B9F9200071
:1002500029000AF041FE0AF04FFF00BF000008002D
:100260000000000000000000000000006804002002
:10027000CC18002000000000000000009CC1000815
:10028000000000206804002068040020CC18002032
:10029000024B034801221A6007F0DEBF0000002075
:1002A000DCB90008024B00221A6007F0DDBF00BF76
:1002B0000000002040F60F73C0F60F7383EA83023C
:1002C00082EA420184EA580C0CEA010C84EA0C042C
:1002D00088EA4C0885EA590C0CEA010C85EA0C0501
:1002E00089EA4C0986EA5A0C0CEA010C86EA0C06EB
:1002F0008AEA4C0A87EA5B0C0CEA010C87EA0C07D5
:100300008BEA4C0B84EA950C0CEA020C84EA0C0490
:1003100085EA8C0088EA990C0CEA020C88EA0C0544
:1003200089EA8C0986EA970C0CEA020C86EA0C082A
:1003300087EA8C078AEA9B0C0CEA020C8AEA0C0218
:100340008BEA8C0B84EA181C0CEA030C84EA0C047C
:1003500088EA0C1880EA171C0CEA030C80EA0C06E9
:1003600087EA0C1A89EA1B1C0CEA030C89EA0C07C1
:100370008BEA0C1B85EA121C0CEA030C85EA0C05BF
:1003800082EA0C19704700BF40F60F73C0F60F7376
:1003900085EA191C0CEA030C85EA0C0589EA0C12A3
:1003A00087EA1B1C0CEA030C87EA0C098BEA0C1B7E
:1003B00086EA1A1C0CEA030C86EA0C018AEA0C177E
:1003C00084EA181C0CEA030C84EA0C0488EA0C1872
:1003D00083EA830382EA9B0C0CEA030C82EA0C0A90
:1003E0008BEA8C0B88EA970C0CEA030C88EA0C0663
:1003F00087EA8C0785EA990C0CEA030C85EA0C085D
:1004000089EA8C0984EA910C0CEA030C84EA0C0456
:1004100081EA8C0583EA430184EA580C0CEA010C5A
:1004200084EA0C0488EA4C0885EA590C0CEA010CB1
:1004300085EA0C0589EA4C0986EA5A0C0CEA010C9B
:1004400086EA0C068AEA4C0A87EA5B0C0CEA010C85
:1004500087EA0C078BEA4C0B704700BFDDF83010C1
:10046000B1E80D1084EA000485EA020586EA030675
:1004700087EA0C07B1E80D1088EA000889EA02094A
:100480008AEA030A8BEA0C0BCDF83010CDF834E081
:1004900087EA090184EA0A0383EA010288EA020082
:1004A00080EA090E02EA0E0C8EEA0B0880EA0500CB
:1004B000CDF82C2084EA07020A9080EA0200099213
:1004C00002EA0002CDF820808BEA000884EA0909DC
:1004D00085EA06068EEA0605CDF81CE085EA000EE0
:1004E000CDF8181001EA0E0181EA0201CDF814E0FE
:1004F00085EA090ECDF8105009EA050585EA0202E1
:1005000086EA0005CDF80C0083EA0500029303EAB1
:1005100005030195CDF800B084EA050586EA0B06CF
:1005200086EA070707EA0B0B8BEA0C0B8BEA020B38
:100530008BEA0E0E86EA040404EA080B8BEA030B2E
:100540008BEA020282EA050286EA0A0A0AEA060B36
:100550008BEA030383EA010383EA00038AEA0900C2
:10056000DDF820B000EA0B0585EA0C0C0A9D08971F
:100570008CEA050C8CEA010101EA030C82EA0C0505
:100580008EEA0C0C81EA0E0101EA050787EA0E0EDD
:100590000EEA04040EEA080883EA02070CEA070CD4
:1005A0008CEA020C85EA0C0702EA070285EA0205DA
:1005B0000EEA050581EA05018EEA0105DDF8047001
:1005C00005EA070787EA0808CDF82880DDF80880E3
:1005D00005EA080801EA0A0A01EA060687EA0606A9
:1005E00083EA0C0382EA030381EA0301DDF8105079
:1005F00001EA050201EA0909CDF810908CEA030529
:10060000DDF81C90DDF82C7005EA090905EA0707FA
:1006100003EA000003EA0B0383EA090386EA030303
:10062000DDF820B0DDF814500CEA0B0B8EEA0C0E4E
:100630008EEA010101EA050585EA0606069D089491
:1006400001EA0501039D099C0EEA050585EA0605F8
:100650000EEA040484EA050E84EA010480EA040137
:1006600081EA0B0087EA010787EA050187EA0307A9
:1006700087EA05038AEA040BDDF800400CEA040C63
:1006800089EA0C0988EA090C82EA0C0286EA02026D
:10069000DDF8204084EA020C80EA0C008CEA0E06A9
:1006A000DDF81040DDF828C086EA040689EA0C0C63
:1006B0008BEA0C0E82EA0E0288EA0E0BDDF834E0BB
:1006C0008CEA0708704700BFCDF834E040F2033CE5
:1006D000C0F2033C0CEA911E21EABC094EEA890EE5
:1006E00081EA3E2440F60F71C0F60F710CEA9B15AB
:1006F0002BEABC0945EA89058BEA352A01EA1A1B6F
:100700002AEA31194BEA091B84EA3B4B8BEA352B69
:100710000CEA921522EABC0945EA890582EA3522EB
:100720008AEA352A01EA121522EA311945EA091541
:100730008AEA354A8AEA040A0CEA901520EABC09DA
:1007400045EA890580EA352082EA352901EA101553
:1007500020EA311245EA021589EA35490CEA981572
:1007600028EABC0245EA820588EA352280EA352873
:1007700001EA121522EA311045EA001588EA3548E7
:1007800088EA04080CEA971527EABC0045EA8005C8
:1007900087EA352082EA352701EA101520EA31126E
:1007A00045EA021587EA354787EA04070CEA9615F9
:1007B00026EABC0245EA820586EA352280EA352629
:1007C00001EA121522EA311045EA001586EA35469B
:1007D0000CEA931523EABC0045EA800583EA35203C
:1007E00082EA352301EA101520EA311245EA0215A2
:1007F00083EA354580EA3E2E01EA141024EA3112DC
:1008000040EA02108EEA3044DDF834E0704700BF61
:10081000CDF834E040F60F7EC0F60F7E0EEA1115DB
:100820000EEA010945EA091581EA35244FEA352126
:100830000EEA1B150EEA0B0945EA09158BEA352C61
:1008400084EA0C0A8BEA0A0B8BEA3C4B0EEA12157F
:100850000EEA020945EA09158AEA352A82EA352CA8
:100860008AEA3C4A0EEA10150EEA000945EA091523
:100870008CEA352980EA352C89EA3C4984EA0C0067
:100880000EEA18150EEA080245EA021280EA322042
:1008900088EA322280EA324882EA04020EEA171518
:1008A0000EEA070045EA001082EA302287EA30208B
:1008B00082EA30470EEA16150EEA060245EA0212EF
:1008C00080EA322086EA322280EA32460EEA1315A6
:1008D0000EEA030045EA0010DDF834E082EA302237
:1008E00083EA302082EA304580EA010181EA34441B
:1008F000704700BFCDF834E043F63F7CC3F63F7C41
:100900000CEA910E21EABC194EEA891E81EA3E24C6
:1009100040F60F71C0F60F710CEA9B052BEABC196B
:1009200045EA89158BEA352A01EA1A1B2AEA3119A8
:100930004BEA091B84EA3B4B8BEA352B0CEA920508
:1009400022EABC1945EA891582EA35228AEA352A63
:1009500001EA121522EA311945EA09158AEA354AEF
:100960008AEA040A0CEA900520EABC1945EA8915CE
:1009700080EA352082EA352901EA101520EA311291
:1009800045EA021589EA35490CEA980528EABC12BD
:1009900045EA821588EA352280EA352801EA1215EF
:1009A00022EA311045EA001588EA354888EA040849
:1009B0000CEA970527EABC1045EA801587EA35203E
:1009C00082EA352701EA101520EA311245EA0215BC
:1009D00087EA354787EA04070CEA960526EABC123F
:1009E00045EA821586EA352280EA352601EA1215A3
:1009F00022EA311045EA001586EA35460CEA9305ED
:100A000023EABC1045EA801583EA352082EA3523C3
:100A100001EA101520EA311245EA021583EA35454C
:100A200080EA3E2E01EA141024EA311240EA021054
:100A30008EEA3044DDF834E0704700BF8BEA3B2C8F
:100A400081EA312484EA3B2B8BEA3C4B8CEA322A44
:100A500082EA322C8AEA3C4A8AEA040A8CEA302981
:100A600080EA302C89EA3C4988EA38228CEA382826
:100A700088EA040888EA324887EA372C82EA37276E
:100A800087EA040787EA3C4786EA36228CEA36265C
:100A900086EA324683EA332C82EA332585EA3C45EE
:100AA0008CEA344484EA3124704700BF40F6007A6F
:100AB000C0F6007A80EA101C0CEA0A0C80EA0C00EE
:100AC00080EA0C1081EA111C0CEA0A0C81EA0C0184
:100AD00081EA0C1182EA121C0CEA0A0C82EA0C026E
:100AE00082EA0C1283EA131C0CEA0A0C83EA0C0358
:100AF00083EA0C1386EA161C0CEA0A0C86EA0C063A
:100B000086EA0C1687EA171C0CEA0A0C87EA0C071F
:100B100087EA0C1788EA181C0CEA0A0C88EA0C0809
:100B200088EA0C188BEA1B1C0CEA0A0C8BEA0C0BEB
:100B30008BEA0C1B704700BF2DE9FF5FADF1380D4C
:100B4000D2F8004055689668D768D3F80080D3F88B
:100B50000490D3F808A0D3F80CB0DDF87010CDF8ED
:100B60003010FFF7A7FBFFF779FCFFF7ADFDFFF7AC
:100B700075FCFFF74DFEFFF771FCFFF7BBFEFFF7BB
:100B80006DFCFFF75BFFFFF769FCFFF79DFDFFF7CB
:100B900065FCFFF73DFEFFF761FCFFF7ABFEFFF7DB
:100BA0005DFCFFF74BFFFFF759FCFFF78DFDFFF7EB
:100BB00055FCFFF77BFFDDF830E0BEE8301484EA37
:100BC000010485EA030586EA0A0687EA0C07BEE8FF
:100BD0000A1488EA010880EA03098AEA020A8BEA11
:100BE0000C0BFFF7D1FBDDE90E010DF1400DC0F854
:100BF000004045608660C760C1F80080C1F804907D
:100C0000C1F808A0C1F80CB0BDE8FC5F704700BF98
:100C10002DE9FF5FADF1380DD2F8004055689668B8
:100C2000D768D3F80080D3F80490D3F808A0D3F89D
:100C30000CB0DDF87010CDF83010FFF73BFBFFF77C
:100C40000DFCFFF741FDFFF709FCFFF7E1FDFFF7A2
:100C500005FCFFF74FFEFFF701FCFFF7EFFEFFF784
:100C6000FDFBFFF731FDFFF7F9FBFFF7D1FDFFF7C4
:100C7000F5FBFFF73FFEFFF7F1FBFFF7DFFEFFF7A6
:100C8000EDFBFFF721FDFFF7E9FBFFF7C1FDFFF7E4
:100C9000E5FBFFF72FFEFFF7E1FBFFF7CFFEFFF7C6
:100CA000DDFBFFF711FDFFF7D9FBFFF7FFFEDDF8D6
:100CB00030E0BEE8301484EA010485EA030586EAE0
:100CC0000A0687EA0C07BEE80A1488EA010880EAE7
:100CD00003098AEA020A8BEA0C0BFFF755FBDDE9F0
:100CE0000E010DF1400DC0F8004045608660C76000
:100CF000C1F80080C1F80490C1F808A0C1F80CB098
:100D0000BDE8FC5F704700BF40F60F73C0F60F737D
:100D100083EA830282EA420184EA580C0CEA010C5D
:100D200084EA0C0488EA4C0885EA590C0CEA010CA8
:100D300085EA0C0589EA4C0986EA5A0C0CEA010C92
:100D400086EA0C068AEA4C0A87EA5B0C0CEA010C7C
:100D500087EA0C078BEA4C0B84EA950C0CEA020C30
:100D600084EA0C0485EA8C0088EA990C0CEA020CEF
:100D700088EA0C0589EA8C0986EA970C0CEA020CD1
:100D800086EA0C0887EA8C078AEA9B0C0CEA020CBC
:100D90008AEA0C028BEA8C0B84EA181C0CEA030C1E
:100DA00084EA0C0488EA0C1880EA171C0CEA030C8D
:100DB00080EA0C0687EA0C1A89EA1B1C0CEA030C71
:100DC00089EA0C078BEA0C1B85EA121C0CEA030C5F
:100DD00085EA0C0582EA0C19704700BFCDF834E0B3
:100DE00087EA090184EA0A0383EA010288EA020029
:100DF00080EA090E02EA0E0C8EEA0B0880EA050072
:100E0000CDF82C2084EA07020A9080EA02000992B9
:100E100002EA0002CDF820808BEA000884EA090982
:100E200085EA06068EEA0605CDF81CE085EA000E86
:100E3000CDF8181001EA0E0181EA0201CDF814E0A4
:100E400085EA090ECDF8105009EA050585EA020287
:100E500086EA0005CDF80C0083EA0500029303EA58
:100E600005030195CDF800B084EA050586EA0B0676
:100E700086EA070707EA0B0B8BEA0C0B8BEA020BDF
:100E80008BEA0E0E86EA040404EA080B8BEA030BD5
:100E90008BEA020282EA050286EA0A0A0AEA060BDD
:100EA0008BEA030383EA010383EA00038AEA090069
:100EB000DDF820B000EA0B0585EA0C0C0A9D0897C6
:100EC0008CEA050C8CEA010101EA030C82EA0C05AC
:100ED0008EEA0C0C81EA0E0101EA050787EA0E0E84
:100EE0000EEA04040EEA080883EA02070CEA070C7B
:100EF0008CEA020C85EA0C0702EA070285EA020581
:100F00000EEA050581EA05018EEA0105DDF80470A7
:100F100005EA070787EA0808CDF82880DDF8088089
:100F200005EA080801EA0A0A01EA060687EA06064F
:100F300083EA0C0382EA030381EA0301DDF810501F
:100F400001EA050201EA0909CDF810908CEA0305CF
:100F5000DDF81C90DDF82C7005EA090905EA0707A1
:100F600003EA000003EA0B0383EA090386EA0303AA
:100F7000DDF820B0DDF814500CEA0B0B8EEA0C0EF5
:100F80008EEA010101EA050585EA0606069D089438
:100F900001EA0501039D099C0EEA050585EA06059F
:100FA0000EEA040484EA050E84EA010480EA0401DE
:100FB00081EA0B0087EA010787EA050187EA030750
:100FC00087EA05038AEA040BDDF800400CEA040C0A
:100FD00089EA0C0988EA090C82EA0C0286EA020214
:100FE000DDF8204084EA020C80EA0C008CEA0E0650
:100FF000DDF81040DDF828C086EA040689EA0C0C0A
:101000008BEA0C0E82EA0E0288EA0E0BDDF834E061
:101010008CEA0708704700BFDDF838C0DCF81C50C8
:101020004CF2C004CCF2C00485EABB0B24EA0B0BE3
:1010300085EABB0909EAB4094BEA090B85EABB0951
:1010400009EA34194BEA090B85EABB0909EAB41924
:101050004BEA090B6FEA0509DCF81850CCF81C9034
:10106000CCF83CB085EAB20A24EA0A0A85EABA0951
:1010700009EAB4094AEA090A85EABA0909EA341907
:101080004AEA090A85EABA0909EAB4194AEA090AE0
:101090006FEA0509DCF81420CCF81890CCF838A0D9
:1010A00082EAB00904EA090982EAB90000EAB40058
:1010B00049EA000982EAB90000EA341049EA000965
:1010C00082EAB90000EAB41049EA0009DCF810200D
:1010D000CCF8349082EAB80804EA080882EAB8003A
:1010E00000EAB40048EA000882EAB80000EA3410D6
:1010F00048EA000882EAB80000EAB41048EA0008AA
:10110000DCF80C20CCF8308082EAB70704EA070745
:1011100082EAB70000EAB40047EA000782EAB700B3
:1011200000EA341047EA000782EAB70000EAB41088
:1011300047EA0007DCF80820CCF82C7082EAB606F3
:1011400024EA060682EAB60000EAB40046EA00068F
:1011500082EAB60000EA341046EA000682EAB600E7
:1011600000EAB41046EA00066FEA0200DCF8042048
:10117000CCF80800CCF8286082EAB30524EA05051B
:1011800082EAB50000EAB40045EA000582EAB5004B
:1011900000EA341045EA000582EAB50000EAB4101E
:1011A00045EA00056FEA02005CF8202B4CF81C0CA5
:1011B000CCF8045082EAB10304EA030382EAB300E4
:1011C00000EAB40043EA000382EAB30000EA341004
:1011D00043EA000382EAB30000EAB41043EA0004E1
:1011E000CCF80040CDF838C0704700BFDDF838C0FB
:1011F000DCF81C504CF2C004CCF2C00485EABB0BF6
:1012000024EA0B0B85EABB0909EAB4094BEA090B8E
:1012100085EABB0909EA34194BEA090B85EABB09DF
:1012200009EAB4194BEA090B6FEA0509DCF8185012
:10123000CCF81C90CCF85CB085EAB20A24EA0A0A21
:1012400085EABA0909EAB4094AEA090A85EABA0943
:1012500009EA34194AEA090A85EABA0909EAB41915
:101260004AEA090A6FEA0509DCF81420CCF818905C
:10127000CCF858A082EAB00904EA090982EAB90068
:1012800000EAB40049EA000982EAB90000EA341031
:1012900049EA000982EAB90000EAB41049EA000903
:1012A000DCF81020CCF8549082EAB80804EA080868
:1012B00082EAB80000EAB40048EA000882EAB8000E
:1012C00000EA341048EA000882EAB80000EAB410E4
:1012D00048EA0008DCF80C20CCF8508082EAB70716
:1012E00004EA070782EAB70000EAB40047EA000709
:1012F00082EAB70000EA341047EA000782EAB70042
:1013000000EAB41047EA0007DCF80820CCF84C707B
:1013100082EAB60624EA060682EAB60000EAB400CB
:1013200046EA000682EAB60000EA341046EA000601
:1013300082EAB60000EAB41046EA00066FEA02004C
:10134000DCF80420CCF80800CCF8486082EAB30549
:1013500024EA050582EAB50000EAB40045EA000582
:1013600082EAB50000EA341045EA000582EAB500D9
:1013700000EAB41045EA00056FEA02005CF8202B91
:101380004CF81C0CCCF8245082EAB10304EA0303A5
:1013900082EAB30000EAB40043EA000382EAB30041
:1013A00000EA341043EA000382EAB30000EAB41012
:1013B00043EA0004CCF82040CDF838C0704700BFA5
:1013C000DDF838C0DCF81C504CF2C004CCF2C0048C
:1013D00085EABB6B24EA0B0B85EABB0909EAB40971
:1013E0004BEA090B85EABB0909EA34194BEA090BF8
:1013F00085EABB0909EAB4194BEA090B6FEA05094A
:10140000DCF81850CCF81C90CCF85CB085EAB26AD5
:1014100024EA0A0A85EABA0909EAB4094AEA090A81
:1014200085EABA0909EA34194AEA090A85EABA09D1
:1014300009EAB4194AEA090A6FEA0509DCF8142036
:10144000CCF81890CCF858A082EAB06904EA0909EF
:1014500082EAB90000EAB40049EA000982EAB90068
:1014600000EA341049EA000982EAB90000EAB4103F
:1014700049EA0009DCF81020CCF8549082EAB868F8
:1014800004EA080882EAB80000EAB40048EA000862
:1014900082EAB80000EA341048EA000882EAB8009C
:1014A00000EAB41048EA0008DCF80C20CCF85080C0
:1014B00082EAB76704EA070782EAB70000EAB400E5
:1014C00047EA000782EAB70000EA341047EA00075B
:1014D00082EAB70000EAB41047EA0007DCF8082007
:1014E000CCF84C7082EAB66624EA060682EAB600B8
:1014F00000EAB40046EA000682EAB60000EA3410C8
:1015000046EA000682EAB60000EAB41046EA00069F
:101510006FEA0200DCF80420CCF80800CCF8486040
:1015200082EAB36524EA050582EAB50000EAB40060
:1015300045EA000582EAB50000EA341045EA0005F4
:1015400082EAB50000EAB41045EA00056FEA02003D
:101550005CF8202B4CF81C0CCCF8245082EAB163C8
:1015600004EA030382EAB30000EAB40043EA00039A
:1015700082EAB30000EA341043EA000382EAB300CF
:1015800000EAB41043EA0004CCF82040CDF838C09B
:10159000704700BF5CF8202DCDF834E040F2080120
:1015A00040F2003EC0F60F4E43F20033C3F2003368
:1015B00082EA121000EA0E0082EA000282EA0012B9
:1015C00082EA920000EA030082EA000282EA8003D3
:1015D0005CF8042F4CF8043C0139E5D1DDF834E027
:1015E000704700BF5CF8202DCDF834E040F20801D0
:1015F00040F6007EC0F6007E82EA121000EA0E007D
:1016000082EA000282EA00135CF8042F4CF8043CE2
:101610000139F1D1DDF834E0704700BF5CF8202DCE
:10162000CDF834E040F2080140F6004EC0F20F3E23
:1016300043F20033C3F2003382EA121000EA0E00D4
:1016400082EA000282EA001282EA920000EA0300C3
:1016500082EA000282EA80035CF8042F4CF8043C22
:101660000139E5D1DDF834E0704700BF2DE9FF5FB7
:10167000ADF1380DD1F800404D688E68CF68D1F8D3
:101680000080D1F80490D1F808A0D1F80CB0FFF791
:101690003BFBDDF8380080E8F00FFFF79FFB8BF491
:1016A000407BFFF7B9FCFFF799FB82F44072FFF72C
:1016B000B3FCFFF76FFFFFF791FB80F44070FFF77B
:1016C000ABFCFFF78FFFFFF789FB88F44078FFF74B
:1016D000A3FCFFF7A3FFFFF781FB87F44077FFF739
:1016E0009BFCFFF77BFB86F44076FFF795FCFFF74A
:1016F00051FFFFF773FB83F44073FFF78DFCFFF797
:1017000071FFFFF76BFB81F44071FFF785FCFFF77A
:1017100085FFFFF763FB8BF4407B82F4407288F413
:10172000407887F44077FFF777FCFFF757FB82F4A8
:10173000407280F4407087F4407786F44076FFF77B
:101740006BFCFFF727FF6FEA05056FEA06066FEAF5
:101750000A0A6FEA0B0BCCE90156CCE906AB5CE94F
:101760004F015CE94A236FEA00006FEA01016FEA6A
:1017700002026FEA03034CE94F014CE94A230DF1E1
:10178000380DBDE8FF5F70472DE9FF5FADF1380D03
:10179000D1F800404D688E68CF68D1F80080D1F84C
:1017A0000490D1F808A0D1F80CB0FFF7ADFADDE94C
:1017B0000E0180E8F00F01F11001D1F800404D68F2
:1017C0008E68CF68D1F80080D1F80490D1F808A0D5
:1017D000D1F80CB0FFF798FADDF8380000F12000DE
:1017E00080E8F00FFFF7FAFA8BF4407BFFF7FEFC7E
:1017F000FFF7F4FAFFF7E4FDFFF7CCFEFFF7EEFA90
:1018000082F44072FFF7F2FCFFF7ECFEFFF7E6FA16
:10181000FFF7D6FDFFF702FFFFF7E0FA80F4407014
:10182000FFF7E4FCFFF7DAFAFFF7CAFDFFF7B2FEB5
:10183000FFF7D4FA88F44078FFF7D8FCFFF7D2FE20
:10184000FFF7CCFAFFF7BCFDFFF7E8FEFFF7C6FA9B
:1018500087F44077FFF7CAFCFFF7C0FAFFF7B0FD47
:10186000FFF798FEFFF7BAFA86F44076FFF7BEFC62
:10187000FFF7B8FEFFF7B2FAFFF7A2FDFFF7CEFEC3
:10188000FFF7ACFA83F44073FFF7B0FC0CF1200CC7
:10189000FFF780FE6FEA05056FEA06066FEA0A0A9F
:1018A0006FEA0B0B5CE907015CE90223CCE9015606
:1018B000CCE906AB6FEA00006FEA01016FEA0202B1
:1018C0006FEA03035CE96F565CE96AAB4CE9070118
:1018D0004CE902236FEA05056FEA06066FEA0A0A79
:1018E0006FEA0B0B4CE96F564CE96AAB0DF1380D02
:1018F000BDE8FF5F704700BF70B50D460446002687
:101900002B68580800F0553003F055332146184431
:101910004FF0020EAEF1020320FA0EFC20FA03F3A0
:1019200003F003030CF0030C0EF1040EA3EB0C0305
:1019300002B90A80B1F900C0BEF1220F634421F858
:10194000023BE7D10836B6F5807F05F1040504F1C6
:101950001004D5D170BD00BFB2F1000FB0F9003056
:1019600018BF4FEA0103A0F8003070472DE9F04F8F
:10197000ADF5907DCDE90001A2F18001CDE9021322
:10198000016842688368C46805694669D0F81870C0
:10199000D0F81C8012BA09BA24BA1BBA36BA2DBACA
:1019A00098FA88F897FA87F7CDE90421CDE906433C
:1019B000CDE90865CDE90A87CDE90C21CDE90E43D3
:1019C000CDE91065CDE91287016A426A836AC46A6B
:1019D000056B466B876BC06B12BA09BA24BA1BBA87
:1019E00036BA2DBA00BA3FBACDE91421CDE9164373
:1019F000CDE91865CDE91A07CDE91C21CDE91E43D3
:101A0000CDE92065CDE92207DDF8040050F8041B7C
:101A100050F8042B50F8043B50F8044B50F8045B8A
:101A200050F8046B50F8047B50F8048B12BA09BAD2
:101A300024BA1BBA36BA2DBA98FA88F897FA87F7FB
:101A4000CDE92421CDE92643CDE92865CDE92A87D2
:101A500050F8041B50F8042B50F8043B50F8044B8A
:101A600050F8045B50F8046B50F8047B50F8048B7A
:101A700012BA09BA24BA1BBA36BA2DBA98FA88F83B
:101A800097FA87F7CDE92C21CDE92E43CDE93065D2
:101A9000CDE9328750F8041B50F8042B50F8043B72
:101AA00050F8044B50F8045B50F8046B50F8047B7A
:101AB00050F8048B12BA09BA24BA1BBA36BA2DBA36
:101AC00098FA88F897FA87F7CDE93421CDE93643BB
:101AD000CDE93865CDE93A8750F8041B50F8042B5E
:101AE00050F8043B50F8044B50F8045B50F8046B7A
:101AF00050F8047B50F8048B12BA09BA24BA1BBA06
:101B000036BA2DBA98FA88F897FA87F7CDE93C21CA
:101B1000CDE93E43CDE94065CDE9428701904FF0E4
:101B20005000449003981299139A1C9B1D9C1E9D73
:101B30001F9E209FDDF88480DDF88890DDF88CA062
:101B4000DDF890B0DDF894C04FF4000E19EB0B09EE
:101B50004AEB0C0A50F804BB50F804CB19EB0B0904
:101B60004AEB0C0AA3FB0ECBE4FB0EBC8CEA934CB5
:101B70008CEA843C8CEA933C8CEA844C8BEA944B50
:101B80008BEA833B8BEA943B8BEA834B19EB0C0982
:101B90004AEB0B0A03EA050527EA030385EA030378
:101BA00019EB030304EA060528EA040485EA0404A1
:101BB0004AEB0404C91842EB0402039112920C9DF3
:101BC0000D9E0E9FDDF83C80DDF84090DDF844A0CE
:101BD0004FF0007BA5FB0BECE6FB0BCE8EEA960BE1
:101BE0008BEA857B8BEA157B8BEA061B8CEA950CCE
:101BF0008CEA867C8CEA167C8CEA051C13EB0B03C2
:101C000044EB0C0487EA090B0BEA050507EA090710
:101C100085EA070513EB050388EA0A0505EA0605C8
:101C200008EA0A0685EA060544EB0504CDE9103406
:101C30001C9B1D9C1E9D1F9EDDF88070DDF884801E
:101C4000DDF898B0DDF89CC04FF4000E17EB0B07E1
:101C500048EB0C0850F804BB50F804CB17EB0B070B
:101C600048EB0C08A1FB0ECBE2FB0EBC8CEA914CBE
:101C70008CEA823C8CEA913C8CEA824C8BEA924B57
:101C80008BEA813B8BEA923B8BEA814B17EB0C078B
:101C900048EB0B0801EA030325EA010183EA01018D
:101CA00017EB010102EA040326EA020283EA0202B8
:101CB00048EB020219EB01034AEB0204CDE92034A0
:101CC000109D119EDDF83070DDF83480DDF838901D
:101CD000DDF83CA04FF0007BA5FB0BECE6FB0BCE48
:101CE0008EEA960B8BEA857B8BEA157B8BEA061BCB
:101CF0008CEA950C8CEA867C8CEA167C8CEA051CB6
:101D000011EB0B0142EB0C0287EA090B0BEA05050C
:101D100007EA090785EA070511EB050188EA0A05C4
:101D200005EA060508EA0A0685EA060542EB050209
:101D3000CDE90E120399129A1C9D1D9EDDF8787054
:101D4000DDF87C80DDF8A0B0DDF8A4C04FF4000E13
:101D500017EB0B0748EB0C0850F804BB50F804CB0A
:101D600017EB0B0748EB0C08A3FB0ECBE4FB0EBCF8
:101D70008CEA934C8CEA843C8CEA933C8CEA844C4D
:101D80008BEA944B8BEA833B8BEA943B8BEA834B45
:101D900017EB0C0748EB0B0803EA010125EA0303E4
:101DA00081EA030117EB010104EA020226EA0403B7
:101DB00082EA030248EB020219EB01034AEB020438
:101DC000CDE91E340E9D0F9EDDF84070DDF8448095
:101DD000DDF83090DDF834A04FF0007BA5FB0BEC74
:101DE000E6FB0BCE8EEA960B8BEA857B8BEA157BA6
:101DF0008BEA061B8CEA950C8CEA867C8CEA167CB6
:101E00008CEA051C11EB0B0142EB0C0287EA090B73
:101E10000BEA050507EA090785EA070511EB050145
:101E200088EA0A0505EA060508EA0A0685EA0605BB
:101E300042EB0502CDE90C122099219A039D129ED6
:101E4000DDF87070DDF87480DDF8A8B0DDF8ACC0A6
:101E50004FF4000E17EB0B0748EB0C0850F804BBCF
:101E600050F804CB17EB0B0748EB0C08A3FB0ECB89
:101E7000E4FB0EBC8CEA934C8CEA843C8CEA933CE9
:101E80008CEA844C8BEA944B8BEA833B8BEA943B41
:101E90008BEA834B17EB0C0748EB0B0803EA0101B5
:101EA00025EA030381EA030117EB010104EA0202B8
:101EB00026EA040382EA030248EB020219EB01035B
:101EC0004AEB0204CDE91C340C9D0D9EDDF8387000
:101ED000DDF83C80DDF84090DDF844A04FF0007B59
:101EE000A5FB0BECE6FB0BCE8EEA960B8BEA857B13
:101EF0008BEA157B8BEA061B8CEA950C8CEA867CB8
:101F00008CEA167C8CEA051C11EB0B0142EB0C02EF
:101F100087EA090B0BEA050507EA090785EA0705C1
:101F200011EB050188EA0A0505EA060508EA0A0632
:101F300085EA060542EB0502CDE945121E991F9A76
:101F4000209D219EDDF80C70DDF84880DDF8B0B0F2
:101F5000DDF8B4C04FF4000E17EB0B0748EB0C088C
:101F600050F804BB50F804CB17EB0B0748EB0C08F8
:101F7000A3FB0ECBE4FB0EBC8CEA934C8CEA843CB6
:101F80008CEA933C8CEA844C8BEA944B8BEA833B3F
:101F90008BEA943B8BEA834B17EB0C0748EB0B085F
:101FA00003EA010125EA030381EA030117EB0101BA
:101FB00004EA020226EA040382EA030248EB020270
:101FC00019EB01034AEB0204CDE92234459D469EFC
:101FD000DDF83070DDF83480DDF83890DDF83CA0B5
:101FE0004FF0007BA5FB0BECE6FB0BCE8EEA960BCD
:101FF0008BEA857B8BEA157B8BEA061B8CEA950CBA
:102000008CEA867C8CEA167C8CEA051C11EB0B01B1
:1020100042EB0C0287EA090B0BEA050507EA090700
:1020200085EA070511EB050188EA0A0505EA0605B8
:1020300008EA0A0685EA060542EB0502CDE9121216
:102040001C991D9A1E9D1F9EDDF88070DDF884800E
:10205000DDF8B8B0DDF8BCC04FF4000E17EB0B078D
:1020600048EB0C0850F804BB50F804CB17EB0B07F7
:1020700048EB0C08A3FB0ECBE4FB0EBC8CEA934CA4
:102080008CEA843C8CEA933C8CEA844C8BEA944B3B
:102090008BEA833B8BEA943B8BEA834B17EB0C0771
:1020A00048EB0B0803EA010125EA030381EA030177
:1020B00017EB010104EA020226EA040382EA0302A2
:1020C00048EB020219EB01034AEB0204CDE920348C
:1020D000129D139EDDF81471DDF81881DDF8309043
:1020E000DDF834A04FF0007BA5FB0BECE6FB0BCE3C
:1020F0008EEA960B8BEA857B8BEA157B8BEA061BB7
:102100008CEA950C8CEA867C8CEA167C8CEA051CA1
:1021100011EB0B0142EB0C0287EA090B0BEA0505F8
:1021200007EA090785EA070511EB050188EA0A05B0
:1021300005EA060508EA0A0685EA060542EB0502F5
:10214000CDE910122299239A1C9D1D9EDDF878700E
:10215000DDF87C80DDF8C0B0DDF8C4C04FF4000EBF
:1021600017EB0B0748EB0C0850F804BB50F804CBF6
:1021700017EB0B0748EB0C08A3FB0ECBE4FB0EBCE4
:102180008CEA934C8CEA843C8CEA933C8CEA844C39
:102190008BEA944B8BEA833B8BEA943B8BEA834B31
:1021A00017EB0C0748EB0B0803EA010125EA0303D0
:1021B00081EA030117EB010104EA020226EA0403A3
:1021C00082EA030248EB020219EB01034AEB020424
:1021D000CDE91E34109D119EDDF84870DDF84C806D
:1021E000DDF81491DDF818A14FF0007BA5FB0BEC96
:1021F000E6FB0BCE8EEA960B8BEA857B8BEA157B92
:102200008BEA061B8CEA950C8CEA867C8CEA167CA1
:102210008CEA051C11EB0B0142EB0C0287EA090B5F
:102220000BEA050507EA090785EA070511EB050131
:1022300088EA0A0505EA060508EA0A0685EA0605A7
:1022400042EB0502CDE90E122099219A229D239E90
:10225000DDF87070DDF87480DDF8C8B0DDF8CCC052
:102260004FF4000E17EB0B0748EB0C0850F804BBBB
:1022700050F804CB17EB0B0748EB0C08A3FB0ECB75
:10228000E4FB0EBC8CEA934C8CEA843C8CEA933CD5
:102290008CEA844C8BEA944B8BEA833B8BEA943B2D
:1022A0008BEA834B17EB0C0748EB0B0803EA0101A1
:1022B00025EA030381EA030117EB010104EA0202A4
:1022C00026EA040382EA030248EB020219EB010347
:1022D0004AEB0204CDE91C340E9B0F9C109D119E0D
:1022E000DDF84870DDF84C804FF00079A3FB09BAA7
:1022F000E4FB09AB8BEA940989EA837989EA1379CB
:1023000089EA04198AEA930A8AEA847A8AEA147AB8
:102310008AEA031A11EB090142EB0A0285EA07096E
:1023200009EA030305EA070583EA050311EB030144
:1023300086EA080303EA040306EA080483EA0403BE
:1023400042EB0302CDE90C1203904498083800F0E8
:10235000E1814490082800F0BB814FF080704FF479
:102360000051249A259B269C279D409EDDF80471F0
:10237000DDF8D880DDF8DC90A7FB01BAE6FB01AB05
:102380008BEA961B8BEA876B8BEA577B8BEAC60B33
:102390008AEA971A8AEA567A8AEAC70A12EB0B0285
:1023A00043EB0A03A5FB00BAE4FB00AB9BEA540B2A
:1023B0009AEA350A8BEAC57B8BEAD41B8BEA456B1C
:1023C0008AEAD51A12EB0B0243EB0A0312EB08025E
:1023D00043EB0903CDE92689DDE94289CDE92423D0
:1023E000A9FB01BAE8FB01AB8BEA981B8BEA896B6E
:1023F0008BEA597B8BEAC80B8AEA991A8AEA587ADF
:102400008AEAC90A14EB0B0445EB0A05DDE928AB9F
:10241000ABFB00ECEAFB00CE9EEA5A0E9CEA3B0CBA
:102420008EEACB7E8EEADA1E8EEA4B6E8CEADB1CDD
:1024300014EB0E0445EB0C05DDE938CE14EB0C046F
:1024400045EB0E05CDE928CECDE93645A3FB01ECE1
:10245000E2FB01CE8EEA921E8EEA836E8EEA537EF6
:102460008EEAC20E8CEA931C8CEA527282EAC30294
:102470001AEB0E034BEB0202DDE92AABABFB00ECDF
:10248000EAFB00CE9EEA5A0E9CEA3B0C8EEACB7E1B
:102490008EEADA1E8EEA4B6E8CEADB1C13EB0E031F
:1024A00042EB0C02DDE93ACE13EB0C0342EB0E02D9
:1024B000CDE92ACECDE93832A5FB01ECE4FB01CE13
:1024C0008EEA941E8EEA856E8EEA557E8EEAC40EE2
:1024D0008CEA951C8CEA547484EAC5041AEB0E0548
:1024E0004BEB0404DDE92CABABFB00ECEAFB00CECC
:1024F0009EEA5A0E9CEA3B0C8EEACB7E8EEADA1EEE
:102500008EEA4B6E8CEADB1C15EB0E0544EB0C04DB
:10251000DDE93CCE15EB0C0544EB0E04CDE92CCEE9
:10252000CDE93A54A2FB01ECE3FB01CE8EEA931E07
:102530008EEA826E8EEA527E8EEAC30E8CEA921C7E
:102540008CEA537383EAC2021AEB0E034BEB0202CE
:10255000DDE92EABABFB00ECEAFB00CE9EEA5A0EA7
:102560009CEA3B0C8EEACB7E8EEADA1E8EEA4B6E3C
:102570008CEADB1C13EB0E0342EB0C02DDE93ECED2
:1025800013EB0C0342EB0E02CDE92ECECDE93C322B
:10259000A4FB01ECE5FB01CE8EEA951E8EEA846E6B
:1025A0008EEA547E8EEAC50E8CEA941C8CEA557530
:1025B00085EAC4041AEB0E054BEB0404DDE930ABED
:1025C000CDE93067ABFB00ECEAFB00CE9EEA5A0E89
:1025D0009CEA3B0C8EEACB7E8EEADA1E8EEA4B6ECC
:1025E0008CEADB1C15EB0E0544EB0C0415EB060521
:1025F00044EB0704CDE93E54A2FB0176E3FB0167FF
:1026000087EA931787EA826787EA527787EAC307E0
:1026100086EA921686EA537383EAC2021AEB07032C
:102620004BEB0202DDE93267CDE93289A7FB00BA44
:10263000E6FB00AB9BEA560B9AEA370A8BEAC77BAC
:102640008BEAD61B8BEA476B8AEAD71A13EB0B038C
:1026500042EB0A0213EB080342EB0902CDE94032D8
:10266000A4FB0132E5FB012383EA951181EA846131
:1026700081EA547181EAC50182EA941282EA5572B4
:1026800082EAC402711847EB0202349B359C249DF8
:10269000DDF89460CDE93456A4FB0087E3FB0078B5
:1026A00098EA530097EA340780EAC47080EAD310AE
:1026B00080EA446087EAD417081842EB0701401902
:1026C00041EB0601CDE94201CDE92434FFF72ABAF6
:1026D00034983599369A379B389C399D3A9E3B9F62
:1026E000CDE92401CDE92623CDE92845CDE92A67A6
:1026F0003C983D993E9A3F9B409C419D429E439F02
:10270000CDE92C01CDE92E23CDE93045CDE9326765
:10271000FFF708BA0398A0F5207003900C980D9964
:102720000E9A0F9B109C119D129E139FDDF8108036
:10273000DDF8149010EB080041EB0901DDE9068992
:1027400012EB080243EB0903DDE9088914EB0804E6
:1027500045EB0905DDE90A8916EB080647EB090791
:10276000CDE90401CDE90623CDE90845CDE90A67A5
:10277000CDE90C01CDE90E23CDE91045CDE9126775
:102780001C981D991E9A1F9B209C219D229E239F71
:10279000DDF85080DDF8549010EB080041EB0901A2
:1027A000DDE9168912EB080243EB0903DDE918891C
:1027B00014EB080445EB0905DDE91A8916EB080658
:1027C00047EB0907CDE91401CDE91623CDE91845FA
:1027D000CDE91A67CDE91C01CDE91E23CDE92045DD
:1027E000CDE92267029880380290BFF40DA90099C4
:1027F000049A059B069C079D089E099FDDF828808A
:10280000DDF82C9012BA1BBA24BA2DBA36BA3FBAE8
:1028100098FA88F899FA89F90B604A608D60CC6063
:102820000F614E61C1F81890C1F81C80149A159B75
:10283000169C179D189E199FDDF86880DDF86C9036
:1028400012BA1BBA24BA2DBA36BA3FBA98FA88F827
:1028500099FA89F90B624A628D62CC620F634E630A
:10286000C1F83890C1F83C8000F180000DF5907DF2
:10287000BDE8F04F704700BF2DE9F04F40F2190E50
:10288000F8C9B2E8001FD3FA48F3D4FA49F4D5FAEC
:102890004AF5D6FA4BF6D7FA4CF7F8C0BEF1010E5E
:1028A0007FF4EEAF38C9B2E80007D3FA48F3D4FAA0
:1028B00049F4D5FA4AF538C0BDE8F08F2DE9F04F5C
:1028C00040F2190EF8C9B2E8001F93FA48F394FADF
:1028D00049F495FA4AF596FA4BF697FA4CF7F8C090
:1028E000BEF1010E7FF4EEAF38C9B2E8000793FAEB
:1028F00048F394FA49F495FA4AF538C0BDE8F08FE8
:102900002DE9F04F40F2400E51F8044B52F8046BA1
:1029100051F8045B52F8047BD3F804B053F808CBA9
:102920002CFB06FC40F804CB24FB16FC40F804CB3F
:102930002BFB07FC40F804CB25FB17FC40F804CB2D
:10294000BEF1010E7FF4E0AFBDE8F08F2DE9F04F4E
:1029500040F2400E51F8044B52F8046BD0F800508E
:1029600053F804CBD0F804702CFB065C40F804CB81
:1029700024FB167B40F804BB51F8044B52F8046B5F
:10298000D0F8005053F804CBD0F804702CFB065C50
:1029900040F804CB24FB167B40F804BBBEF1010ECB
:1029A0007FF4D8AFBDE8F08F2DE9F04F46F6080967
:1029B000C0F601584FF2013AC6F6A83ADDF824B045
:1029C00040F2400E51F8044B52F8046B5BF8045B84
:1029D00053F804CB5BF8047B2CFB065505FB0AF58A
:1029E00015FB389524FB167707FB0AF717FB38977A
:1029F000C7EA254540F8045B51F8044B52F8046BD4
:102A00005BF8045B53F804CB5BF8047B2CFB0655A6
:102A100005FB0AF515FB389524FB167707FB0AF72B
:102A200017FB3897C7EA254540F8045BBEF1010E55
:102A30007FF4C8AFBDE8F08F2DE9F04F2DED088A87
:102A4000C0F6015CB1EC0F4A00F5007E04EE10EA1E
:102A50000BEE900AD0F82020D0F82430D0F828408F
:102A6000D0F82C50D0F83060D0F83470D0F83880DE
:102A7000D0F83C9046F6080092FA03FED2FA03F32F
:102A800094FA05FBD4FA05F596FA07F2D6FA07F799
:102A900098FA09F4D8FA09F99EFA0BF8DEFA0BFB5A
:102AA00092FA04F6D2FA04F415EE10AA3AFB05FEE7
:102AB0003AFB15F51EFB1C0E15FB1C05C5EA2E4E38
:102AC000D3FA4EF593FA4EF33AFB09FE3AFB19F9A5
:102AD0001EFB1C0E19FB1C09C9EA2E4ED7FA4EF933
:102AE00097FA4EF798FA06F2D8FA06F616EE10AAFA
:102AF0003AFB07FE3AFB17F71EFB1C0E17FB1C07E1
:102B0000C7EA2E4ED3FA4EF793FA4EF316EE90AA7A
:102B10003AFB04FE3AFB14F41EFB1C0E14FB1C04CF
:102B2000C4EA2E4EDBFA0EF89BFA0EF417EE10AA4A
:102B30003AFB09FE3AFB19F91EFB1C0E19FB1C0996
:102B4000C9EA2E4ED5FA4EF995FA4EF518EE10BA9E
:102B50003BFB03FE3BFB13F31EFB1C0E13FB1C0392
:102B6000C3EA2E4318EE90AA19EE10BA3AFB04FEFF
:102B70003AFB14F41EFB1C0E14FB1C04C4EA2E4486
:102B80003BFB05FE3BFB15F51EFB1C0E15FB1C0558
:102B9000C5EA2E4519EE90AA1AEE10BA3AFB06FEC7
:102BA0003AFB16F61EFB1C0E16FB1C06C6EA2E464A
:102BB0003BFB07FE3BFB17F71EFB1C0E17FB1C071E
:102BC000C7EA2E471AEE90AA1BEE10BA3AFB08FE8F
:102BD0003AFB18F81EFB1C0E18FB1C08C8EA2E480E
:102BE0003BFB09FE3BFB19F91EFB1C0E19FB1C09E4
:102BF000C9EA2E4900EE102A00EE903A01EE104A82
:102C000001EE905A02EE106A02EE907A03EE108AFC
:102C100003EE909A1BEE900AD0F80020D0F8043012
:102C2000D0F80840D0F80C50D0F81060D0F81470EC
:102C3000D0F81880D0F81C9046F6080092FA03FEEF
:102C4000D2FA03F394FA05FBD4FA05F596FA07F2E3
:102C5000D6FA07F798FA09F4D8FA09F99EFA0BF8A8
:102C6000DEFA0BFB92FA04F6D2FA04F415EE10AA7F
:102C70003AFB05FE3AFB15F51EFB1C0E15FB1C0569
:102C8000C5EA2E4ED3FA4EF593FA4EF33AFB09FEFF
:102C90003AFB19F91EFB1C0E19FB1C09C9EA2E4E42
:102CA000D7FA4EF997FA4EF798FA06F2D8FA06F6DE
:102CB00016EE10AA3AFB07FE3AFB17F71EFB1C0E96
:102CC00017FB1C07C7EA2E4ED3FA4EF793FA4EF3C2
:102CD00016EE90AA3AFB04FE3AFB14F41EFB1C0EFF
:102CE00014FB1C04C4EA2E4EDBFA0EF89BFA0EF419
:102CF00017EE10AA3AFB09FE3AFB19F91EFB1C0E4F
:102D000019FB1C09C9EA2E4ED5FA4EF995FA4EF573
:102D10001BEE900A10EE90BA93FA4BFED3FA4BF3E7
:102D2000C0F804E0C0F8243011EE90BA95FA4BFEDA
:102D3000D5FA4BF5C0F80CE0C0F82C5012EE90BA62
:102D400097FA4BFED7FA4BF7C0F814E0C0F834708E
:102D500013EE90BA99FA4BFED9FA4BF9C0F81CE081
:102D6000C0F83C9011EE105A94FA45FED4FA45FB97
:102D7000C0F808E0C0F828B012EE107A96FA47FEC4
:102D8000D6FA47FBC0F810E0C0F830B013EE109A46
:102D900098FA49FED8FA49FBC0F818E0C0F838B0F4
:102DA00010EE103A92FA43FED2FA43FBC0F820B07C
:102DB00040F840EB14EE10EAB0EB0E0F7FF448AE93
:102DC000A0F5007003EE100AD0F80020D0F84030D3
:102DD000D0F88040D0F8C050D0F80061D0F84071F1
:102DE000D0F88081D0F8C091B1EC060A46F6080010
:102DF0004AF6B87AC0F2130A3AFB02FE3AFB12F224
:102E00001EFB1C0E12FB1C02C2EA2E423AFB03FE02
:102E10003AFB13F31EFB1C0E13FB1C03C3EA2E43E9
:102E20003AFB04FE3AFB14F41EFB1C0E14FB1C04BC
:102E3000C4EA2E443AFB05FE3AFB15F51EFB1C0EB8
:102E400015FB1C05C5EA2E453AFB06FE3AFB16F6B5
:102E50001EFB1C0E16FB1C06C6EA2E463AFB07FE9E
:102E60003AFB17F71EFB1C0E17FB1C07C7EA2E4781
:102E70003AFB08FE3AFB18F81EFB1C0E18FB1C0858
:102E8000C8EA2E483AFB09FE3AFB19F91EFB1C0E54
:102E900019FB1C09C9EA2E4992FA03FED2FA03F380
:102EA00094FA05FBD4FA05F596FA07F2D6FA07F775
:102EB00098FA09F4D8FA09F99EFA0BF8DEFA0BFB36
:102EC00092FA04F6D2FA04F410EE90AA3AFB05FE48
:102ED0003AFB15F51EFB1C0E15FB1C05C5EA2E4E14
:102EE000D3FA4EF593FA4EF33AFB09FE3AFB19F981
:102EF0001EFB1C0E19FB1C09C9EA2E4ED7FA4EF90F
:102F000097FA4EF798FA06F2D8FA06F611EE90AA5A
:102F10003AFB07FE3AFB17F71EFB1C0E17FB1C07BC
:102F2000C7EA2E4ED3FA4EF793FA4EF312EE10AADA
:102F30003AFB04FE3AFB14F41EFB1C0E14FB1C04AB
:102F4000C4EA2E4EDBFA0EF89BFA0EF412EE90AAAB
:102F50003AFB09FE3AFB19F91EFB1C0E19FB1C0972
:102F6000C9EA2E4ED5FA4EF995FA4EF5F1E802ABC4
:102F70003AFB02FE3AFB12F21EFB1C0E12FB1C0275
:102F8000C2EA2E423BFB03FE3BFB13F31EFB1C0E6F
:102F900013FB1C03C3EA2E43F1E802AB3AFB04FE29
:102FA0003AFB14F41EFB1C0E14FB1C04C4EA2E4452
:102FB0003BFB05FE3BFB15F51EFB1C0E15FB1C0524
:102FC000C5EA2E45F1E802AB3AFB06FE3AFB16F6DF
:102FD0001EFB1C0E16FB1C06C6EA2E463BFB07FE1C
:102FE0003BFB17F71EFB1C0E17FB1C07C7EA2E47FF
:102FF000F1E802AB3AFB08FE3AFB18F81EFB1C0E88
:1030000018FB1C08C8EA2E483BFB09FE3BFB19F9DC
:103010001EFB1C0E19FB1C09C9EA2E4913EE100AEF
:10302000C0F80061C0F84071C0F88081C0F8C0915C
:10303000C0F84030C0F88040C0F8C05040F8042BC1
:1030400000F13C0E07EE10EA03EE100AD0F8002063
:10305000D0F84030D0F88040D0F8C050D0F80061AF
:10306000D0F84071D0F88081D0F8C09146F60800C1
:1030700051F804AB3AFB03FE3AFB13F31EFB1C0EA4
:1030800013FB1C03C3EA2E4ED2FA4EF392FA4EF211
:103090003AFB05FE3AFB15F51EFB1C0E15FB1C0545
:1030A000C5EA2E4ED4FA4EF594FA4EF43AFB07FEDA
:1030B0003AFB17F71EFB1C0E17FB1C07C7EA2E4E28
:1030C000D6FA4EF796FA4EF63AFB09FE3AFB19F994
:1030D0001EFB1C0E19FB1C09C9EA2E4ED8FA4EF92C
:1030E00098FA4EF8F1E802AB3AFB04FE3AFB14F40E
:1030F0001EFB1C0E14FB1C04C4EA2E4ED2FA4EF426
:1031000092FA4EF23BFB05FE3BFB15F51EFB1C0E37
:1031100015FB1C05C5EA2E4ED3FA4EF593FA4EF375
:103120003AFB08FE3AFB18F81EFB1C0E18FB1C08A5
:10313000C8EA2E4ED6FA4EF896FA4EF63BFB09FE3A
:103140003BFB19F91EFB1C0E19FB1C09C9EA2E4E8C
:10315000D7FA4EF997FA4EF7F1E802AB3AFB06FEC2
:103160003AFB16F61EFB1C0E16FB1C06C6EA2E4E7C
:10317000D2FA4EF692FA4EF23BFB07FE3BFB17F7F4
:103180001EFB1C0E17FB1C07C7EA2E4ED3FA4EF788
:1031900093FA4EF3F1E802AB3AFB08FE3AFB18F85B
:1031A0001EFB1C0E18FB1C08C8EA2E4ED4FA4EF863
:1031B00094FA4EF43BFB09FE3BFB19F91EFB1C0E77
:1031C00019FB1C09C9EA2E4ED5FA4EF995FA4EF5AF
:1031D000F1E802AB3AFB02FE3AFB12F21EFB1C0EB8
:1031E00012FB1C02C2EA2E423BFB03FE3BFB13F325
:1031F0001EFB1C0E13FB1C03C3EA2E43F1E802ABBB
:103200003AFB04FE3AFB14F41EFB1C0E14FB1C04D8
:10321000C4EA2E443BFB05FE3BFB15F51EFB1C0ED2
:1032200015FB1C05C5EA2E45F1E802AB3AFB06FE8C
:103230003AFB16F61EFB1C0E16FB1C06C6EA2E46B3
:103240003BFB07FE3BFB17F71EFB1C0E17FB1C0787
:10325000C7EA2E47F1E802AB3AFB08FE3AFB18F842
:103260001EFB1C0E18FB1C08C8EA2E483BFB09FE7F
:103270003BFB19F91EFB1C0E19FB1C09C9EA2E4960
:1032800013EE100AC0F80061C0F84071C0F88081E8
:10329000C0F8C091C0F84030C0F88040C0F8C050BD
:1032A00040F8042B17EE10EAB0EB0E0F7FF4CCAE13
:1032B000BDEC088ABDE8F08F2DE9F04F2DED098AAD
:1032C000C0F6015CB1EC0F4A00F1200E0CEE10EAE2
:1032D0000BEE900AD0F82020D0F86030D0F8A04053
:1032E000D0F8E050D0F82061D0F86071D0F8A0811B
:1032F000D0F8E09146F6080014EE10AA3AFB06FE5C
:103300003AFB16F61EFB1C0E16FB1C06C6EA2E4EDA
:10331000D2FA4EF692FA4EF23AFB07FE3AFB17F754
:103320001EFB1C0E17FB1C07C7EA2E4ED3FA4EF7E6
:1033300093FA4EF33AFB08FE3AFB18F81EFB1C0EFC
:1033400018FB1C08C8EA2E4ED4FA4EF894FA4EF434
:103350003AFB09FE3AFB19F91EFB1C0E19FB1C096E
:10336000C9EA2E4ED5FA4EF995FA4EF514EE90AA0A
:1033700015EE10BA3AFB04FE3AFB14F41EFB1C0EC9
:1033800014FB1C04C4EA2E4ED2FA4EF492FA4EF20A
:103390003AFB05FE3AFB15F51EFB1C0E15FB1C0542
:1033A000C5EA2E4ED3FA4EF593FA4EF33BFB08FED8
:1033B0003BFB18F81EFB1C0E18FB1C08C8EA2E4E1F
:1033C000D6FA4EF896FA4EF63BFB09FE3BFB19F98E
:1033D0001EFB1C0E19FB1C09C9EA2E4ED7FA4EF92A
:1033E00097FA4EF715EE90AA16EE10BA3AFB03FEC6
:1033F0003AFB13F31EFB1C0E13FB1C03C3EA2E4EF9
:10340000D2FA4EF392FA4EF23BFB05FE3BFB15F56A
:103410001EFB1C0E15FB1C05C5EA2E4ED4FA4EF5FC
:1034200094FA4EF416EE90AA17EE10BA3AFB07FE85
:103430003AFB17F71EFB1C0E17FB1C07C7EA2E4EA4
:10344000D6FA4EF796FA4EF63BFB09FE3BFB19F90E
:103450001EFB1C0E19FB1C09C9EA2E4ED8FA4EF9A8
:1034600098FA4EF817EE90AA18EE10BA3AFB02FE40
:103470003AFB12F21EFB1C0E12FB1C02C2EA2E4289
:103480003BFB03FE3BFB13F31EFB1C0E13FB1C0359
:10349000C3EA2E4318EE90AA19EE10BA3AFB04FEC6
:1034A0003AFB14F41EFB1C0E14FB1C04C4EA2E444D
:1034B0003BFB05FE3BFB15F51EFB1C0E15FB1C051F
:1034C000C5EA2E4519EE90AA1AEE10BA3AFB06FE8E
:1034D0003AFB16F61EFB1C0E16FB1C06C6EA2E4611
:1034E0003BFB07FE3BFB17F71EFB1C0E17FB1C07E5
:1034F000C7EA2E471AEE90AA1BEE10BA3AFB08FE56
:103500003AFB18F81EFB1C0E18FB1C08C8EA2E48D4
:103510003BFB09FE3BFB19F91EFB1C0E19FB1C09AA
:10352000C9EA2E4900EE102A00EE903A01EE104A48
:1035300001EE905A02EE106A02EE907A03EE108AC3
:1035400003EE909A1BEE900AD0F80020D0F840309D
:10355000D0F88040D0F8C050D0F80061D0F8407169
:10356000D0F88081D0F8C09146F6080014EE10AA79
:103570003AFB06FE3AFB16F61EFB1C0E16FB1C065B
:10358000C6EA2E4ED2FA4EF692FA4EF23AFB07FEF9
:103590003AFB17F71EFB1C0E17FB1C07C7EA2E4E43
:1035A000D3FA4EF793FA4EF33AFB08FE3AFB18F8BB
:1035B0001EFB1C0E18FB1C08C8EA2E4ED4FA4EF84F
:1035C00094FA4EF43AFB09FE3AFB19F91EFB1C0E65
:1035D00019FB1C09C9EA2E4ED5FA4EF995FA4EF59B
:1035E00014EE90AA15EE10BA3AFB04FE3AFB14F45E
:1035F0001EFB1C0E14FB1C04C4EA2E4ED2FA4EF421
:1036000092FA4EF23AFB05FE3AFB15F51EFB1C0E34
:1036100015FB1C05C5EA2E4ED3FA4EF593FA4EF370
:103620003BFB08FE3BFB18F81EFB1C0E18FB1C089E
:10363000C8EA2E4ED6FA4EF896FA4EF63BFB09FE35
:103640003BFB19F91EFB1C0E19FB1C09C9EA2E4E87
:10365000D7FA4EF997FA4EF715EE90AA16EE10BA71
:103660003AFB03FE3AFB13F31EFB1C0E13FB1C0379
:10367000C3EA2E4ED2FA4EF392FA4EF23BFB05FE0F
:103680003BFB15F51EFB1C0E15FB1C05C5EA2E4E5B
:10369000D4FA4EF594FA4EF416EE90AA17EE10BA3C
:1036A0003AFB07FE3AFB17F71EFB1C0E17FB1C0725
:1036B000C7EA2E4ED6FA4EF796FA4EF63BFB09FEB7
:1036C0003BFB19F91EFB1C0E19FB1C09C9EA2E4E07
:1036D000D8FA4EF998FA4EF81BEE900A10EE90AA1E
:1036E00093FA4AFED3FA4AF3C0F840E0C0F86030DB
:1036F00011EE90AA95FA4AFED5FA4AF5C0F8C0E054
:10370000C0F8E05012EE90AA97FA4AFED7FA4AF7AC
:10371000C0F840E1C0F8607113EE90AA99FA4AFE31
:10372000D9FA4AF9C0F8C0E1C0F8E09111EE105A98
:1037300094FA45FED4FA45FAC0F880E0C0F8A0A09B
:1037400012EE107A96FA47FED6FA47FAC0F800E170
:10375000C0F820A113EE109A98FA49FED8FA49FA57
:10376000C0F880E1C0F8A0A110EE103A92FA43FE32
:10377000D2FA43FAC0F820A040F804EB1CEE10EA9D
:10378000B0EB0E0F7FF4A4ADA0F1200000F5007E99
:1037900006EE90EA0BEE900AD0F80020D0F8043044
:1037A000D0F80840D0F80C50D0F81060D0F8147061
:1037B000D0F81880D0F81C9046F6080051F804ABF9
:1037C0003AFB06FE3AFB16F61EFB1C0E16FB1C0609
:1037D000C6EA2E4ED2FA4EF692FA4EF23AFB07FEA7
:1037E0003AFB17F71EFB1C0E17FB1C07C7EA2E4EF1
:1037F000D3FA4EF793FA4EF33AFB08FE3AFB18F869
:103800001EFB1C0E18FB1C08C8EA2E4ED4FA4EF8FC
:1038100094FA4EF43AFB09FE3AFB19F91EFB1C0E12
:1038200019FB1C09C9EA2E4ED5FA4EF995FA4EF548
:10383000F1E802AB3AFB04FE3AFB14F41EFB1C0E4B
:1038400014FB1C04C4EA2E4ED2FA4EF492FA4EF245
:103850003AFB05FE3AFB15F51EFB1C0E15FB1C057D
:10386000C5EA2E4ED3FA4EF593FA4EF33BFB08FE13
:103870003BFB18F81EFB1C0E18FB1C08C8EA2E4E5A
:10388000D6FA4EF896FA4EF63BFB09FE3BFB19F9C9
:103890001EFB1C0E19FB1C09C9EA2E4ED7FA4EF965
:1038A00097FA4EF7F1E802AB3AFB03FE3AFB13F34B
:1038B0001EFB1C0E13FB1C03C3EA2E4ED2FA4EF362
:1038C00092FA4EF23BFB05FE3BFB15F51EFB1C0E70
:1038D00015FB1C05C5EA2E4ED4FA4EF594FA4EF4AB
:1038E000F1E802AB3AFB07FE3AFB17F71EFB1C0E92
:1038F00017FB1C07C7EA2E4ED6FA4EF796FA4EF67D
:103900003BFB09FE3BFB19F91EFB1C0E19FB1C09B6
:10391000C9EA2E4ED8FA4EF998FA4EF81BEE900AE4
:10392000C0F81060C0F81470C0F81880C0F81C907F
:10393000C0F80430C0F80840C0F80C5040F8202B04
:1039400016EE90EAB0EB0E0F7FF424AFBDEC098ABF
:10395000BDE8F08F0000000030B5D0F8C8C0D0F846
:10396000CC3083B04D1E002B08BFAC4504468DF80B
:10397000072015D0624601230DF1070101F040F840
:1039800080208DF8070001232A460DF1070120460B
:1039900001F036F800220023C4E9322303B030BD21
:1039A000D1B261F07F018DF80710012362460DF15D
:1039B000070101F025F8EDE72DE9F8430446D0F8BA
:1039C000C8001D46D4F8CC3017462A1843F100032E
:1039D0008A4273F100031ED30E464FF000084FF0E9
:1039E0000009331A02463946204601F009F8D4F896
:1039F000C83020469A1BC4E93289F31A15441F4483
:103A000001F07EFBD4E932032A1843F10003B242ED
:103A100073F10003E5D202462B463946204600F0FA
:103A2000EFFFD4E932325B1942F10002C4E93232CD
:103A3000BDE8F8838B42F8B50C461D46074616468E
:103A40000CD3314623460022384600F0D9FF2D1B07
:103A5000384601F055FBAC422644F2D9013C7DB911
:103A60002A4606A93846012300F0CAFF8025012313
:103A7000224606A938468DF8185000F0C1FFF8BD5F
:103A80002B4631460022384600F0BAFFAC42E7D15F
:103A90009DF81840012364F07F042A4606A93846A1
:103AA0008DF8184000F0ACFFF8BD00BF2DE9F047DD
:103AB000D2E9325A4FF00009A94216469846A3EBC4
:103AC000050279EB0A030C4607460DD20B46014668
:103AD000304601F015F9D6E932321B1B62F10002C3
:103AE000C6E93232BDE8F0872B460146304601F088
:103AF00007F9D6F8C8305B1BC6F8C830D6F8CC300A
:103B00002F4463EB0A03651BC6F8CC30EAD030467D
:103B100001F0F6FAA845444628BF2C46234639460C
:103B20000022304601F0ECF8A8EB04032D1BC6E997
:103B300032392744EBD1BDE8F08700BF08B500213A
:103B4000C82207F08AFC002103460020C3E93201A5
:103B500008BD00BF13460A46A8212DE710B5D0E9DD
:103B6000322182B01F238DF80730A2F1A7030B4347
:103B7000044614D001230DF1070100F041FF80201D
:103B80008DF807000123A7220DF10701204600F060
:103B900037FF00220023C4E9322302B010BD9F2169
:103BA0008DF807100123A7220DF1070100F028FF6F
:103BB000EFE700BFA82379E7D02207F031BD00BFAF
:103BC000704700BF08B50021C82207F046FC00215D
:103BD00003460020C3E9320108BD00BF13460A4670
:103BE0008821E9E610B5D0E9322182B01F238DF893
:103BF0000730A2F187030B43044614D001230DF1D3
:103C0000070100F0FDFE80208DF8070001238722C8
:103C10000DF10701204600F0F3FE00220023C4E965
:103C2000322302B010BD9F218DF807100123872297
:103C30000DF1070100F0E4FEEFE700BF882335E750
:103C4000D02207F0EDBC00BF704700BFF0B50F46B3
:103C500085B016460021C82204461D4607F0FDFB2C
:103C60000D4B029341F20103ADF80C3008230DEB2C
:103C7000030100222046ADF80E7000F0C1FE204680
:103C800001F03EFA04230093A8212B463246204639
:103C9000FFF7D0FE05B0F0BD01A8010089B170B5F5
:103CA000054616460C46304601F02AFA2946A82356
:103CB0000022304601F024F8013C05F1A805F2D1BC
:103CC00070BD7047F0B5B9B015460646C8220F461C
:103CD00004A800211C4607F0C0FB9FED277B284A63
:103CE0000292082341F201020DEB0301ADF80C2012
:103CF00004A800228DED367BADF80E5000F080FE5A
:103D000004A801F0FDF93E9B2246A82104A8FFF774
:103D100053FE369A379904238DF80730A2F1A70392
:103D20000B431BD001230DF1070104A800F068FE2E
:103D300080238DF807300DF107010123A72204A885
:103D400000F05EFE9FED0C7B04AA39463046A823A6
:103D50008DED367BFFF7AAFE39B0F0BD84228DF8D9
:103D600007200123A7220DF1070104A800F048FE57
:103D7000E8E700BFAFF30080000000000000000093
:103D800001A8010030B585B00D4603920021C8227C
:103D9000044607F062FB1F220092039BA8212A46DB
:103DA0002046FFF747FE05B030BD00BF89B170B5B2
:103DB000054616460C46304601F0A2F92946A823CE
:103DC0000022304600F09CFF013C05F1A805F2D12D
:103DD00070BD704770B5B8B014460546C8220E468F
:103DE00004A80021019307F038FB9FED1D7B019B88
:103DF0002246A82104A88DED367BFFF7DDFD369A1B
:103E000037991F238DF80F30A2F1A7030B431BD066
:103E100001230DF10F0104A800F0F2FD80238DF8BD
:103E20000F300DF10F010123A72204A800F0E8FDD7
:103E30009FED0B7B04AA31462846A8238DED367BE7
:103E4000FFF734FE38B070BD9F228DF80F2001239C
:103E5000A7220DF10F0104A800F0D2FDE8E700BF92
:103E60000000000000000000704700BFC82207F0FB
:103E7000D7BB00BF30B585B00D4603920021C822E4
:103E8000044607F0EAFA1F220092039B88212A4683
:103E90002046FFF7CFFD05B030BD00BF89B170B53A
:103EA000054616460C46304601F02AF92946882375
:103EB0000022304600F024FF013C05F18805F2D1D4
:103EC00070BD704770B5B8B014460546C8220E469E
:103ED00004A80021019307F0C0FA9FED1D7B019B10
:103EE0002246882104A88DED367BFFF765FD369AC2
:103EF00037991F238DF80F30A2F187030B431BD096
:103F000001230DF10F0104A800F07AFD80238DF844
:103F10000F300DF10F010123872204A800F070FD7E
:103F20009FED0B7B04AA3146284688238DED367B16
:103F3000FFF7BCFD38B070BD9F228DF80F20012324
:103F400087220DF10F0104A800F05AFDE8E700BF39
:103F50000000000000000000704700BFC82207F00A
:103F60005FBB00BF30B5B9B00C4601920021C8223A
:103F7000054604A807F071FA00200021CDE93601BA
:103F8000019B2246882104A8FFF716FDDDE93621B2
:103F900006238DF80F30A2F187030B431BD00123BA
:103FA0000DF10F0104A800F02BFD80228DF80F20E9
:103FB00001230DF10F01872204A800F021FD9FEDE0
:103FC0000C7B882304AA284620218DED367BFFF741
:103FD0006DFD39B030BD86218DF80F100123872289
:103FE0000DF10F0104A800F00BFDE8E7AFF300802E
:103FF000000000000000000008B50021C82207F002
:104000002CFA002103460020C3E9320108BD00BF9D
:1040100013460A468821CFE430B50D460446A3B0C6
:10402000062288212846FFF797FC284601F068F809
:10403000284669468823002200F062FEEC46BCE870
:104040000F0020606160A260E360BCE80F002061A7
:104050006161A261E36123B030BD00BFD02207F0EF
:10406000DFBA00BF704700BF08B50021C82207F0C3
:10407000F4F9002103460020C3E9320108BD00BF66
:1040800013460A46682197E430B50C469BB00546B6
:10409000062268212046FFF75FFC204601F030F839
:1040A000204668230022694600F02AFE6C46AC4692
:1040B0000CADA646BEE80F00AE450CF1100C04F1A5
:1040C00010044CF8100C4CF80C1C4CF8082C4CF854
:1040D000043CEED11BB030BDD02207F0A1BA00BF26
:1040E000704700BF30B5B9B00C4601920021C8221C
:1040F000054604A807F0B1F900200021CDE93601FA
:10410000019B2246682104A8FFF756FCDDE9362111
:1041100006238DF80F30A2F167030B431BD0012358
:104120000DF10F0104A800F06BFC80228DF80F2028
:1041300001230DF10F01672204A800F061FC9FED3F
:104140000C7B682304AA284630218DED367BFFF7CF
:10415000ADFC39B030BD86218DF80F1001236722E8
:104160000DF10F0104A800F04BFCE8E7AFF300806D
:10417000000000000000000030B5B9B00C4601920C
:104180000021C822054604A807F067F90020002195
:10419000CDE93601019B2246482104A8FFF70CFC1B
:1041A000DDE9362106238DF80F30A2F147030B43DA
:1041B0001BD001230DF10F0104A800F021FC802287
:1041C0008DF80F2001230DF10F01472204A800F004
:1041D00017FC9FED0B7B482304AA284640218DED58
:1041E000367BFFF763FC39B030BD86218DF80F10A8
:1041F000012347220DF10F0104A800F001FCE8E7BC
:10420000000000000000000008B50021C82207F0EF
:1042100024F9002103460020C3E9320108BD00BF94
:1042200013460A464821FFF7C7BB00BF30B50C460E
:1042300093B00546062248212046FFF78DFB204615
:1042400000F05EFF204648230022694600F058FD3A
:104250006C46AC4610ADA646BEE80F00AE450CF16C
:10426000100C04F110044CF8100C4CF80C1C4CF819
:10427000082C4CF8043CEED113B030BDD02207F02E
:10428000CFB900BF704700BFF0B50F4685B01646E6
:104290000021C82204461D4607F0DFF80D4B0293AB
:1042A00041F20103ADF80C3008230DEB03010022AD
:1042B0002046ADF80E7000F0A3FB204600F020FF72
:1042C0000423009388212B4632462046FFF7B2FB99
:1042D00005B0F0BD0188010089B170B505461646EC
:1042E0000C46304600F00CFF294688230022304659
:1042F00000F006FD013C05F18805F2D170BD704764
:10430000F0B5B9B015460646C8220F4604A80021EC
:104310001C4607F0A2F89FED267B274A029208234D
:1043200041F201020DEB0301ADF80C2004A80022BC
:104330008DED367BADF80E5000F062FB04A800F066
:10434000DFFE3E9B2246882104A8FFF735FB369A04
:10435000379904238DF80730A2F187030B431BD054
:1043600001230DF1070104A800F04AFB80238DF81A
:1043700007300DF107010123872204A800F040FB5C
:104380009FED0B7B04AA3946304688238DED367BA2
:10439000FFF78CFB39B0F0BD84228DF80720012394
:1043A00087220DF1070104A800F02AFBE8E700BF0F
:1043B0000000000000000000018801002DE9F04726
:1043C0001746ADF6486DFB6802AC06468A46106893
:1043D0005168926825460FC538697969BA69FB69E1
:1043E0000FC5032321222146204684F82030FFF701
:1043F000C3FE92AF0025EAB2384600230AA9013570
:1044000003F0ACFC032D07F50077F4D192A84FF030
:10441000000903F0E7FE4B460DF6480292A912A8E8
:104420000094CDF8049002F033FB12A803F0B0FC26
:104430002A4601230AA912A803F090FC12A803F04F
:10444000A5FC12A9304603F037FC012706F5C0751C
:104450005FFA87F843460DF6480292A912A8CDE903
:10446000004902F097FB12A803F092FC012308F127
:1044700003020AA912A803F071FC12A803F086FC3B
:10448000284612A903F018FC7B1C032B05F5C07508
:104490004FF00207DCD192A9504603F083FEA446F8
:1044A000BCE80F00C6F88004C6F88414C6F8882457
:1044B000C6F88C34BCE80F00C6F89004C6F8941413
:1044C000C6F89824C6F89C340DF6486DBDE8F08710
:1044D0002DE9F04FADF5905D83B0904607468B46D1
:1044E0001E4602F590690DF5C1650024E2B228462A
:1044F00000233146013403F031FC032C05F500752F
:10450000F4D101250DF5C16003F06CFE00230DF61A
:1045100008420DF5C16102A8CDF80090019502F0A6
:10452000B7FA02A803F034FC22462B46314602A813
:1045300003F014FC02A803F02FFC002202A9384665
:1045400003F06EFA2C46AA46E5B22B460DF6084259
:104550000DF5C16102A8CDE9009A02F01BFB02A88B
:1045600003F016FC0123EA1C314602A803F0F6FB17
:1045700002A803F011FC224602A9384603F050FAC3
:10458000631C032B4FF00204DED182AC414602A82B
:1045900003F0B2FB0DF6084302AA0DF5C1612046F7
:1045A00003F0EEFB08F5C07102A803F0A5FB0DF6C1
:1045B000086302AA0DF60801204603F0E3FB08F5A4
:1045C000407102A803F098FB0DF5805302AA0DF686
:1045D000082108330DF5C160009403F0D5FB0DF5FB
:1045E000C16003F0D5FB0123314606220DF5C16001
:1045F00003F0B4FB594602A803F0D4FB0DF5C161EA
:1046000002AA084603F0CAFB0DF5C16003F0C4FB23
:104610000DF5C16107F5707003F052F90DF5905D6D
:1046200003B0BDE8F08F00BF2DE9F04FADF5905D10
:1046300085B09146804602911F4602F5906A0DF5BD
:10464000C2640025EAB2204600233946013503F052
:1046500085FB032D04F50074F4D101240DF5C2602F
:1046600003F0C0FD00230DF541620DF5C26104A801
:10467000CDF800A0019402F00BFA04A803F088FB27
:104680002A462346394604A803F068FB04A803F031
:1046900083FB002204A9404603F0B2FAA346054674
:1046A000C617CDF80C905FFA84F94B460DF54162C0
:1046B0000DF5C26104A8CDE900AB02F06BFA04A8C5
:1046C00003F066FB012309F10302394604A803F055
:1046D00045FB04A803F060FB224604A9404603F012
:1046E0008FFA631C032B45EA000546EAE0764FF09B
:1046F0000204D8D1DDF80C9084AC494604A803F03C
:10470000FBFA0DF5416304AA0DF5C261204603F0E2
:1047100037FB09F5C07104A803F0EEFA0DF56163EB
:1047200004AA0DF50161204603F02CFB09F5407148
:1047300004A803F0E1FA0DF5805304AA0DF52161F8
:1047400010330DF5C260009403F01EFB0DF5C2603E
:1047500003F01EFB0123394606220DF5C26003F06B
:10476000FDFA029904A803F01DFB0DF5C26104AA2D
:10477000084603F013FB0DF5C26003F00DFB0DF5C9
:10478000C26108F5707003F0E3F905436D4246EA33
:10479000E07060EB4000C00F0DF5905D05B0BDE826
:1047A000F08F00BF70B5ADF5006D154606460022CE
:1047B00068460C4603F084F9684603F0E7FA2A4697
:1047C00069460DF5806003F0B3FA2146012280A806
:1047D00003F076F980A803F0D9FA05F5C07280A934
:1047E0000DF5806003F0AAFA2146022280A803F0AA
:1047F00067F980A803F0CAFA0DF5806305F54072E9
:1048000080A9684603F0A0FA684603F0C1FA04F5EF
:10481000707180A803F0A8F86A4680A9684603F082
:10482000BFFA684603F0B8FA6946304603F0DCFA8E
:104830000DF5006D70BD00BF00000000000000001D
:104840000000000000000000000000000000000068
:104850000000000000000000000000000000000058
:104860000000000000000000000000000000000048
:104870000000000000000000000000000000000038
:104880000000000000000000000000000000000028
:104890000000000000000000000000000000000018
:1048A0000000000000000000000000000000000008
:1048B00000000000000000000000000000000000F8
:1048C00000000000000000000000000000000000E8
:1048D00000000000000000000000000000000000D8
:1048E00000000000000000000000000000000000C8
:1048F00000000000000000000000000000000000B8
:10490000704700BFAFF30080AFF30080AFF30080CB
:10491000AFF30080AFF30080AFF30080AFF300800F
:10492000AFF30080AFF30080AFF30080AFF30080FF
:10493000AFF30080AFF30080AFF30080AFF30080EF
:10494000AFF30080AFF30080AFF30080AFF30080DF
:10495000AFF30080AFF30080AFF30080AFF30080CF
:10496000AFF30080AFF30080AFF30080AFF30080BF
:10497000AFF30080AFF30080AFF30080AFF30080AF
:10498000AFF30080AFF30080AFF30080AFF300809F
:10499000AFF30080AFF30080AFF30080AFF300808F
:1049A000AFF30080AFF30080AFF30080AFF300807F
:1049B000AFF30080AFF30080AFF30080AFF300806F
:1049C000AFF30080AFF30080AFF30080AFF300805F
:1049D000AFF30080AFF30080AFF30080AFF300804F
:1049E000AFF30080AFF30080AFF30080AFF300803F
:1049F000AFF30080AFF30080AFF30080AFF300802F
:104A000003B32DE9F04122F00704001912F0070268
:104A10000BD01C00C2F10805AC4200DD2C00A3EB5A
:104A20000408230000F0ECF84346DA0804D0984666
:104A300000F066F808F0070313B1002200F0E0F878
:104A4000BDE8F081704700BFAFF30080AFF3008096
:104A5000AFF30080AFF30080AFF30080AFF30080CE
:104A6000AFF30080AFF30080AFF30080AFF30080BE
:104A7000AFF30080AFF30080AFF30080AFF30080AE
:104A8000AFF30080AFF30080AFF30080AFF300809E
:104A9000AFF30080AFF30080AFF30080AFF300808E
:104AA000AFF30080AFF30080AFF30080AFF300807E
:104AB000AFF30080AFF30080AFF30080AFF300806E
:104AC000AFF30080AFF30080AFF30080AFF300805E
:104AD000AFF30080AFF30080AFF30080AFF300804E
:104AE000AFF30080AFF30080AFF30080AFF300803E
:104AF000AFF30080AFF30080AFF30080AFF300802E
:104B000051F8044B51F8045BD0E9006704F05533C9
:104B100043EA530303F0333343EA930303F00F33C1
:104B200043EA131303F0FF1363F30F2386EA1326FC
:104B300005F0553343EA530303F0333343EA930359
:104B400003F00F3343EA131303F0FF1343EA132375
:104B500086EA034604F0AA3343EA430303F0CC3366
:104B600043EA830303F0F03343EA031303F0FF2324
:104B700043EA032387EA134705F0AA3343EA4303D2
:104B800003F0CC3343EA830303F0F03343EA031327
:104B900003F0FF2343EA03236FF30F035F40E0E8D2
:104BA0000267013AACD17047AFF30080AFF30080E9
:104BB000AFF30080AFF30080AFF30080AFF300806D
:104BC000AFF30080AFF30080AFF30080AFF300805D
:104BD000AFF30080AFF30080AFF30080AFF300804D
:104BE000AFF30080AFF30080AFF30080AFF300803D
:104BF000AFF30080AFF30080AFF30080AFF300802D
:104C00000024002530B46A4411F8015B02F8015B0E
:104C1000013BF9D130BCD0E9006704F0553343EAD9
:104C2000530303F0333343EA930303F00F3343EAB0
:104C3000131303F0FF1363F30F2386EA132605F023
:104C4000553343EA530303F0333343EA930303F04A
:104C50000F3343EA131303F0FF1343EA132386EAE7
:104C6000034604F0AA3343EA430303F0CC3343EA98
:104C7000830303F0F03343EA031303F0FF2343EA13
:104C8000032387EA134705F0AA3343EA430303F0FB
:104C9000CC3343EA830303F0F03343EA031303F016
:104CA000FF2343EA03236FF30F035F40E0E802674B
:104CB000704700BFAFF30080AFF30080AFF3008018
:104CC000AFF30080AFF30080AFF30080AFF300805C
:104CD000AFF30080AFF30080AFF30080AFF300804C
:104CE000AFF30080AFF30080AFF30080AFF300803C
:104CF000AFF30080AFF30080AFF30080AFF300802C
:104D000003B32DE9F04122F00704001912F0070265
:104D10000BD01C00C2F10805AC4200DD2C00A3EB57
:104D20000408230000F0ECF84346DA0804D0984663
:104D300000F066F808F0070313B1002200F0E0F875
:104D4000BDE8F081704700BFAFF30080AFF3008093
:104D5000AFF30080AFF30080AFF30080AFF30080CB
:104D6000AFF30080AFF30080AFF30080AFF30080BB
:104D7000AFF30080AFF30080AFF30080AFF30080AB
:104D8000AFF30080AFF30080AFF30080AFF300809B
:104D9000AFF30080AFF30080AFF30080AFF300808B
:104DA000AFF30080AFF30080AFF30080AFF300807B
:104DB000AFF30080AFF30080AFF30080AFF300806B
:104DC000AFF30080AFF30080AFF30080AFF300805B
:104DD000AFF30080AFF30080AFF30080AFF300804B
:104DE000AFF30080AFF30080AFF30080AFF300803B
:104DF000AFF30080AFF30080AFF30080AFF300802B
:104E0000F0E80245230065F31F446FF30F0545EA00
:104E1000134584EA142303F47F435C4084EA0324AB
:104E200084EA141303F0F0135C4084EA031484EA68
:104E3000940303F00C335C4084EA830484EA540353
:104E400003F022335C4084EA430485EA152303F42B
:104E50007F435D4085EA032585EA151303F0F013CF
:104E60005D4085EA031585EA950303F00C335D4048
:104E700085EA830585EA550303F022335D4085EA20
:104E8000430541F8044B013A41F8045BB8D170473F
:104E9000AFF30080AFF30080AFF30080AFF300808A
:104EA000AFF30080AFF30080AFF30080AFF300807A
:104EB000AFF30080AFF30080AFF30080AFF300806A
:104EC000AFF30080AFF30080AFF30080AFF300805A
:104ED000AFF30080AFF30080AFF30080AFF300804A
:104EE000AFF30080AFF30080AFF30080AFF300803A
:104EF000AFF30080AFF30080AFF30080AFF300802A
:104F0000F0E80245260065F31F446FF30F0545EAFC
:104F1000164584EA142606F47F46744084EA062483
:104F200084EA141606F0F016744084EA061484EA43
:104F3000940606F00C36744084EA860484EA54062B
:104F400006F02236744084EA460485EA152606F403
:104F50007F46754085EA062585EA151606F0F016A7
:104F6000754085EA061585EA950606F00C3675400B
:104F700085EA860585EA550606F02236754085EAFB
:104F8000460530B46A4412F8014B013B01F8014B6D
:104F9000F9D102B0704700BFAFF30080AFF30080DB
:104FA000AFF30080AFF30080AFF30080AFF3008079
:104FB000AFF30080AFF30080AFF30080AFF3008069
:104FC000AFF30080AFF30080AFF30080AFF3008059
:104FD000AFF30080AFF30080AFF30080AFF3008049
:104FE000AFF30080AFF30080AFF30080AFF3008039
:104FF000AFF30080AFF30080AFF30080AFF3008029
:105000000100000000000000000000008900000016
:10501000000000008B000080000000008080008005
:10502000010000008B000000010000000080000073
:1050300001000000888000800100000082000080E4
:10504000000000000B000000000000000A0000004B
:1050500001000000828000000000000003800000CA
:10506000010000008B800000010000000B000080A8
:10507000010000008A000080010000008100008023
:105080000000000081000080000000000800008097
:10509000000000008300000000000000038000808A
:1050A000010000008880008000000000880000806F
:1050B00001000000008000000000000082800080ED
:1050C000FF000000AFF30080AFF30080AFF300807B
:1050D000AFF30080AFF30080AFF30080AFF3008048
:1050E000AFF30080AFF30080AFF30080AFF3008038
:1050F000AFF30080AFF30080AFF30080AFF3008028
:10510000AFF204112DE9F05F86B00591D0F82030A0
:10511000D0F84810D0F87050D0F898B0D0F8C0C08F
:1051200083EA010383EA050383EA0B0383EA0C03A2
:10513000D0F80C70D0F83410D0F85C50D0F884B0AF
:10514000D0F8ACC087EA010787EA050787EA0B07B2
:1051500087EA0C0783EAF776D0F81440D0F83C10C1
:10516000D0F86450D0F88CB0D0F8B4C0CDF800605E
:1051700084EA010484EA050484EA0B0484EA0C044A
:1051800083EA0406D0F81830D0F84010D0F8685000
:10519000D0F890B0D0F8B8C0CDF80C6083EA010325
:1051A00083EA050383EA0B0383EA0C0387EA03021D
:1051B000D0F80070D0F82810D0F85050D0F878B05F
:1051C000D0F8A0C087EA010787EA050787EA0B073E
:1051D00087EA0C0787EAF47AD0F81C40D0F844102C
:1051E000D0F86C50D0F894B0D0F8BCC084EA010478
:1051F00084EA050484EA0B0484EA0C0484EA070EBA
:10520000D0F80870D0F83010D0F85850D0F880B0EE
:10521000D0F8A8C087EA010787EA050787EA0B07E5
:1052200087EA0C0787EAF476D0F82440D0F84C10CF
:10523000D0F87450D0F89CB0D0F8C4C0CDF810604D
:1052400084EA010484EA050484EA0B0484EA0C0479
:1052500084EA0708D0F81070D0F83810D0F8605001
:10526000D0F888B0D0F8B0C0CDF8048087EA010744
:1052700087EA050787EA0B0787EA0C0787EAF479CC
:10528000D0F80440D0F82C10D0F85450D0F87CB0AE
:10529000D0F8A4C0CDF8089084EA010484EA05049B
:1052A00084EA0B0484EA0C0484EA070B83EAF47CA6
:1052B000D0F81830D0F84840D0F85450D0F8846076
:1052C000D0F8B470C0F8541089EA03038CEA0404DF
:1052D00088EA05058BEA060682EA070725EA3461B3
:1052E00081EA3351C0F8541026EA755181EA7431CD
:1052F000C0F8841027EA362181EA7571C0F8B4102D
:1053000023EAF73181EAF651C0F8181024EA337124
:1053100081EAF721D0F80830D0F83C40D0F8685046
:10532000D0F89C60D0F8A470C0F848108AEA030353
:1053300082EA040489EA05058EEA060688EA070778
:1053400025EA742181EA3331C0F8A41026EA3561D8
:1053500081EA7401C0F8081027EA761181EA7571B4
:10536000C0F83C1023EAF75181EA3671C0F86810A2
:1053700024EAF30181EAB761DDF80080D0F8243037
:10538000D0F82840D0F85850D0F88C60D0F8B870D9
:10539000C0F89C108EEA030388EA04048AEA050533
:1053A00082EA060689EA070725EAF44181EAF35111
:1053B000C0F8281026EAF50181EAB451C0F8581067
:1053C00027EA365181EAF551C0F88C1023EAB7413B
:1053D00081EAB611C0F8B81024EA331181EAB75156
:1053E000D0F81430D0F84040D0F87050D0F8786041
:1053F000D0F8AC70C0F8241082EA030389EA0404F0
:105400008CEA050588EA06068BEA070725EA346177
:1054100081EA3351C0F8781026EA750181EA746197
:10542000C0F8AC1027EA763181EAB531C0F8141023
:1054300023EAB77181EAF621C0F8401024EA3371FB
:1054400081EAB761DDF80C90D0F80030046B456E4E
:10545000D0F89460D0F8C070C0F8701088EA0303E8
:105460008AEA040482EA050589EA06068CEA070747
:1054700026EA755181EA7451C0F8301027EA367176
:1054800081EA7541C0F8641023EA776181EA7651B8
:10549000C0F8941024EAB35181EAF731C0F8C01083
:1054A00025EA040505990C6883EAB52384EA03011B
:1054B000DDF81020D0F81C30D0F84C40D0F8505017
:1054C000D0F88060D0F8B070C0F8001089EA03030B
:1054D0008EEA040488EA05058AEA060682EA0707D6
:1054E00025EAF45181EAF341C0F8501026EA7551DB
:1054F00081EA3431C0F8801027EA362181EA7571DB
:10550000C0F8B01023EA374181EA3661C0F81C10B8
:1055100024EA337181EA3731D0F80C30D0F83840C2
:10552000D0F86C50D0F89860D0F8A070C0F84C104B
:105530008BEA030382EA040489EA05058CEA06067D
:1055400088EA070725EAB42181EA3331C0F8A010C0
:1055500026EAF55181EA7401C0F80C1027EA7611A9
:1055600081EA3571C0F8381023EA376181EA767133
:10557000C0F86C1024EAB30181EAB761DDF8048059
:10558000D0F82030D0F82C40D0F85C50D0F88860AB
:10559000D0F8BC70C0F898108CEA030388EA0404C1
:1055A0008BEA050582EA060689EA070725EAF4413F
:1055B00081EA3361C0F82C1026EAB50181EA745102
:1055C000C0F85C1027EA765181EAF551C0F88810DE
:1055D00023EA774181EAB611C0F8BC1024EA7311BE
:1055E00081EAB751D0F81030D0F84440D0F8745068
:1055F000D0F87C60D0F8A870C0F8201082EA0303CD
:1056000089EA04048EEA050588EA06068AEA07079D
:1056100025EA346181EA7351C0F87C1026EA7501ED
:1056200081EA7461C0F8A81027EA363181EA753141
:10563000C0F8101023EAB77181EAB621C0F844100F
:1056400024EA737181EAF761DDF80890D0F804303C
:10565000446B056ED0F89060D0F8C470C0F8741038
:1056600088EA03038BEA040482EA050589EA060650
:105670008EEA070726EA755181EA3451C0F83410E2
:1056800027EA767181EAB541C0F8601023EA7761B4
:1056900081EAB651C0F8901024EAB35181EAF7319B
:1056A000C0F8C41025EAF47505994C6883EAF5231F
:1056B00084EA030ED0F8C030D0F84810D0F89850E3
:1056C000D0F824B0D0F874C0C0F804E083EA3133D5
:1056D00083EAF54383EA3B1383EABC63D0F8347072
:1056E000D0F88010D0F80850D0F85CB0D0F8ACC03A
:1056F00087EA315787EAB51787EAFB0787EABC577D
:105700004FEAB32383EA7756D0F86040D0F8B01060
:10571000D0F83C50D0F888B0D0F814C0CDF8006074
:1057200084EA712484EAB57484EAFB2484EABC1414
:1057300083EA7466D0F89430D0F81810D0F86C5022
:10574000D0F8B8B0D0F844C0CDF80C6083EAB143CB
:1057500083EAF57383EABB4383EA7C0383EAB752A7
:10576000D0F80070D0F85410D0F8A050D0F828B07D
:10577000D0F87CC087EAB17787EAF54787EAFB670C
:1057800087EA3C3787EA346AD0F89040D0F81C109A
:10579000D0F86850D0F8BCB0D0F840C084EAB1442A
:1057A00084EA050484EAFB4484EA7C0484EA070E64
:1057B000D0F83070D0F88410D0F80C50D0F858B031
:1057C000D0F8A8C087EA315787EAF51787EAFB07C0
:1057D00087EABC574FEA775787EAF476D0F8C44097
:1057E000D0F84C10D0F89C50D0F820B0D0F870C051
:1057F000CDF8106084EA313484EAF54484EA3B143D
:1058000084EAFC6487EAB428D0F86470D0F8B41055
:10581000D0F83850D0F88CB0D0F810C0CDF8048053
:1058200087EA312787EAB57787EAFB2787EABC173B
:105830004FEA776787EA7429D0F80440D0F850100F
:10584000D0F8A450D0F82CB0D0F878C0CDF808909B
:1058500084EAF17484EA355484EAFB6484EA7C3493
:1058600084EA070B83EAF47CD0F89430D0F84840FF
:10587000D0F8A450D0F85C60D0F81470C0F8A41030
:1058800089EA03038CEAB45488EA35558BEA7666D4
:1058900082EAF77725EA346181EA3351C0F8A4102F
:1058A00026EA755181EA7431C0F85C1027EA362186
:1058B00081EA7571C0F8141023EAF73181EAF651D4
:1058C000C0F8941024EA337181EAF721D0F830301F
:1058D000D0F8B040D0F86C50D0F82060D0F8787094
:1058E000C0F848108AEA735382EAB40489EAF5756D
:1058F0008EEAB63688EA773725EA742181EA3331B1
:10590000C0F8781026EA356181EA7401C0F83010D9
:1059100027EA761181EA7571C0F8B01023EAF751D1
:1059200081EA3671C0F86C1024EAF30181EAB761AC
:10593000DDF80080D0F8C430D0F85440D0F80C50D6
:10594000D0F88860D0F84470C0F820108EEAB323F5
:1059500088EAB4748AEA357582EA361689EA7707E6
:1059600025EAF44181EAF351C0F8541026EAF50122
:1059700081EAB451C0F80C1027EA365181EAF5519A
:10598000C0F8881023EAB74181EAB611C0F8441084
:1059900024EA331181EAB751D0F86030D0F81840CA
:1059A000D0F89850D0F82860D0F8AC70C0F8C41087
:1059B00082EA736389EAB4448CEA757588EAF6660C
:1059C0008BEA373725EA346181EA3351C0F8281071
:1059D00026EA750181EA7461C0F8AC1027EA7631D5
:1059E00081EAB531C0F8601023EAB77181EAF62187
:1059F000C0F8181024EA337181EAB761DDF80C9021
:105A0000D0F80030D0F88440C56BD0F8BC60476F48
:105A1000C0F8981088EA03038AEA742482EAF555EC
:105A200089EAF6468CEA371726EA755181EA7451FD
:105A3000C0F8841027EA367181EA7541C0F83C103D
:105A400023EA776181EA7651C0F8BC1024EAB351A9
:105A500081EAF731C0F8741025EA040505998C68CD
:105A600083EAB52384EA0301DDF81020D0F89030F2
:105A7000D0F84C40D0F8A050D0F85860D0F8107052
:105A8000C0F8001089EA03038EEAB45488EAF545A9
:105A90008AEA366682EAF77725EAF45181EAF34129
:105AA000C0F8A01026EA755181EA3431C0F85810C8
:105AB00027EA362181EA7571C0F8101023EA3741D0
:105AC00081EA3661C0F8901024EA337181EA3731F7
:105AD000D0F83430D0F8B440D0F86850D0F8246012
:105AE000D0F87C70C0F84C108BEAB35382EA74048F
:105AF00089EA05058CEAB63688EA373725EAB42103
:105B000081EA3331C0F87C1026EAF55181EA74014C
:105B1000C0F8341027EA761181EA3571C0F8B41064
:105B200023EA376181EA7671C0F8681024EAB3018C
:105B300081EAB761DDF80480D0F8C030D0F8504079
